:020000020000FC
:100000000C9402000FEF0DBF00E10EBF40E05FEF68
:10001000A79AA69AA59AA49A4ABB0E9415010E9483
:1000200020010E9450010E940003BD9ABA9A00E08C
:100030000ABB0E941C00F0CF04E60E949400C29804
:10004000C59800E30E947C000AE00E94940000E34F
:100050000E947C0008EC0E94A20000E30E947C0049
:1000600008EC0E94A20008E20E947C0000E50E94C9
:10007000A20008E20E94740000E50E94A20008E0CD
:100080000E94740000E50E94A20001E00E9474003A
:1000900004E00E94940006E00E94740000E50E94C3
:1000A000A2000CE00E94740000E50E94A2000895E6
:1000B000FF93EF9300680E94740000E50E94A20085
:1000C0000191003031F00E946C0000E50E94A20016
:1000D000F7CFEF91FF910895C29AC5980E947C00D6
:1000E00002950E947C000895C298C5980E947C00E9
:1000F00002950E947C000895AF9A07FFAF98AE9AD0
:1001000006FFAE98AD9A05FFAD98AC9A04FFAC9887
:10011000C59A0E94A700C5980E94A70008950E9452
:1001200099002197E1F708950E9499000A95E1F757
:100130000895CF93DF93CBECD7E02197F1F7DF91D0
:10014000CF9108950E94A7000A95E1F708950F93B3
:040150000F9108956E
:04022A0069B3089517
:10024000A62F83E1880F880F880F90E0A0301AF462
:10025000A8270C942601AA0F9395983011F00C94BE
:060260002801A29508959B
:1002A0003A2F1A2FF1E0E0E0B1E0A0E0129525E04E
:1002B0002A9561F0111F10F00C94620101E30D9377
:1002C0000C94580100E30D930C94580100E00E9437
:0402D0005800089535
:10060000F2E0E0E03A3014F00C940903305D0C9411
:100610000C03395C0C940C0300E4309300020E943C
:0406200058000895E1
:00000001FF
